{
  "contractName": "FileStorage",
  "abi": [
    {
      "anonymous": false,
      "inputs": [
        {
          "indexed": true,
          "internalType": "string",
          "name": "ipfsHash",
          "type": "string"
        },
        {
          "indexed": true,
          "internalType": "address",
          "name": "sender",
          "type": "address"
        },
        {
          "indexed": true,
          "internalType": "address",
          "name": "receiver",
          "type": "address"
        },
        {
          "indexed": false,
          "internalType": "uint256",
          "name": "timestamp",
          "type": "uint256"
        }
      ],
      "name": "AccessGranted",
      "type": "event"
    },
    {
      "anonymous": false,
      "inputs": [
        {
          "indexed": true,
          "internalType": "string",
          "name": "ipfsHash",
          "type": "string"
        },
        {
          "indexed": true,
          "internalType": "address",
          "name": "sender",
          "type": "address"
        },
        {
          "indexed": true,
          "internalType": "address",
          "name": "receiver",
          "type": "address"
        },
        {
          "indexed": false,
          "internalType": "uint256",
          "name": "timestamp",
          "type": "uint256"
        }
      ],
      "name": "AccessRevoked",
      "type": "event"
    },
    {
      "anonymous": false,
      "inputs": [
        {
          "indexed": true,
          "internalType": "string",
          "name": "ipfsHash",
          "type": "string"
        },
        {
          "indexed": true,
          "internalType": "address",
          "name": "user",
          "type": "address"
        },
        {
          "indexed": false,
          "internalType": "uint256",
          "name": "timestamp",
          "type": "uint256"
        }
      ],
      "name": "FileAccessed",
      "type": "event"
    },
    {
      "anonymous": false,
      "inputs": [
        {
          "indexed": true,
          "internalType": "string",
          "name": "ipfsHash",
          "type": "string"
        },
        {
          "indexed": false,
          "internalType": "string",
          "name": "fileName",
          "type": "string"
        },
        {
          "indexed": false,
          "internalType": "string",
          "name": "description",
          "type": "string"
        },
        {
          "indexed": false,
          "internalType": "uint256",
          "name": "timestamp",
          "type": "uint256"
        },
        {
          "indexed": true,
          "internalType": "address",
          "name": "owner",
          "type": "address"
        }
      ],
      "name": "FileUploaded",
      "type": "event"
    },
    {
      "inputs": [
        {
          "internalType": "string",
          "name": "",
          "type": "string"
        },
        {
          "internalType": "address",
          "name": "",
          "type": "address"
        }
      ],
      "name": "accessList",
      "outputs": [
        {
          "internalType": "bool",
          "name": "hasAccess",
          "type": "bool"
        },
        {
          "internalType": "string",
          "name": "accessKey",
          "type": "string"
        },
        {
          "internalType": "uint256",
          "name": "grantedAt",
          "type": "uint256"
        }
      ],
      "stateMutability": "view",
      "type": "function",
      "constant": true
    },
    {
      "inputs": [
        {
          "internalType": "address",
          "name": "",
          "type": "address"
        },
        {
          "internalType": "uint256",
          "name": "",
          "type": "uint256"
        }
      ],
      "name": "accessedFiles",
      "outputs": [
        {
          "internalType": "string",
          "name": "",
          "type": "string"
        }
      ],
      "stateMutability": "view",
      "type": "function",
      "constant": true
    },
    {
      "inputs": [
        {
          "internalType": "string",
          "name": "",
          "type": "string"
        },
        {
          "internalType": "uint256",
          "name": "",
          "type": "uint256"
        }
      ],
      "name": "fileAccessList",
      "outputs": [
        {
          "internalType": "address",
          "name": "",
          "type": "address"
        }
      ],
      "stateMutability": "view",
      "type": "function",
      "constant": true
    },
    {
      "inputs": [
        {
          "internalType": "string",
          "name": "",
          "type": "string"
        }
      ],
      "name": "files",
      "outputs": [
        {
          "internalType": "string",
          "name": "ipfsHash",
          "type": "string"
        },
        {
          "internalType": "string",
          "name": "fileName",
          "type": "string"
        },
        {
          "internalType": "string",
          "name": "description",
          "type": "string"
        },
        {
          "internalType": "uint256",
          "name": "timestamp",
          "type": "uint256"
        },
        {
          "internalType": "address",
          "name": "owner",
          "type": "address"
        },
        {
          "internalType": "bool",
          "name": "exists",
          "type": "bool"
        }
      ],
      "stateMutability": "view",
      "type": "function",
      "constant": true
    },
    {
      "inputs": [
        {
          "internalType": "address",
          "name": "",
          "type": "address"
        },
        {
          "internalType": "uint256",
          "name": "",
          "type": "uint256"
        }
      ],
      "name": "userFiles",
      "outputs": [
        {
          "internalType": "string",
          "name": "",
          "type": "string"
        }
      ],
      "stateMutability": "view",
      "type": "function",
      "constant": true
    },
    {
      "inputs": [
        {
          "internalType": "string",
          "name": "ipfsHash",
          "type": "string"
        },
        {
          "internalType": "string",
          "name": "fileName",
          "type": "string"
        },
        {
          "internalType": "string",
          "name": "description",
          "type": "string"
        }
      ],
      "name": "uploadFile",
      "outputs": [],
      "stateMutability": "nonpayable",
      "type": "function"
    },
    {
      "inputs": [
        {
          "internalType": "string",
          "name": "ipfsHash",
          "type": "string"
        },
        {
          "internalType": "address",
          "name": "receiver",
          "type": "address"
        },
        {
          "internalType": "string",
          "name": "accessKey",
          "type": "string"
        }
      ],
      "name": "grantAccess",
      "outputs": [],
      "stateMutability": "nonpayable",
      "type": "function"
    },
    {
      "inputs": [
        {
          "internalType": "string",
          "name": "ipfsHash",
          "type": "string"
        },
        {
          "internalType": "address",
          "name": "user",
          "type": "address"
        }
      ],
      "name": "revokeAccess",
      "outputs": [],
      "stateMutability": "nonpayable",
      "type": "function"
    },
    {
      "inputs": [
        {
          "internalType": "string",
          "name": "ipfsHash",
          "type": "string"
        },
        {
          "internalType": "address",
          "name": "user",
          "type": "address"
        },
        {
          "internalType": "string",
          "name": "accessKey",
          "type": "string"
        }
      ],
      "name": "verifyAccess",
      "outputs": [
        {
          "internalType": "bool",
          "name": "",
          "type": "bool"
        }
      ],
      "stateMutability": "view",
      "type": "function",
      "constant": true
    },
    {
      "inputs": [
        {
          "internalType": "string",
          "name": "ipfsHash",
          "type": "string"
        },
        {
          "internalType": "address",
          "name": "user",
          "type": "address"
        }
      ],
      "name": "recordFileAccess",
      "outputs": [],
      "stateMutability": "nonpayable",
      "type": "function"
    },
    {
      "inputs": [
        {
          "internalType": "address",
          "name": "user",
          "type": "address"
        }
      ],
      "name": "getAccessedFiles",
      "outputs": [
        {
          "internalType": "string[]",
          "name": "",
          "type": "string[]"
        }
      ],
      "stateMutability": "view",
      "type": "function",
      "constant": true
    },
    {
      "inputs": [
        {
          "internalType": "address",
          "name": "user",
          "type": "address"
        }
      ],
      "name": "getFilesByUser",
      "outputs": [
        {
          "internalType": "string[]",
          "name": "",
          "type": "string[]"
        }
      ],
      "stateMutability": "view",
      "type": "function",
      "constant": true
    },
    {
      "inputs": [
        {
          "internalType": "string",
          "name": "ipfsHash",
          "type": "string"
        }
      ],
      "name": "getFileDetails",
      "outputs": [
        {
          "internalType": "string",
          "name": "fileName",
          "type": "string"
        },
        {
          "internalType": "string",
          "name": "description",
          "type": "string"
        },
        {
          "internalType": "uint256",
          "name": "timestamp",
          "type": "uint256"
        },
        {
          "internalType": "address",
          "name": "owner",
          "type": "address"
        }
      ],
      "stateMutability": "view",
      "type": "function",
      "constant": true
    },
    {
      "inputs": [
        {
          "internalType": "string",
          "name": "ipfsHash",
          "type": "string"
        }
      ],
      "name": "getFileAccessList",
      "outputs": [
        {
          "internalType": "address[]",
          "name": "",
          "type": "address[]"
        }
      ],
      "stateMutability": "view",
      "type": "function",
      "constant": true
    },
    {
      "inputs": [
        {
          "internalType": "string",
          "name": "ipfsHash",
          "type": "string"
        },
        {
          "internalType": "address",
          "name": "user",
          "type": "address"
        }
      ],
      "name": "getAccessDetails",
      "outputs": [
        {
          "internalType": "bool",
          "name": "hasAccess",
          "type": "bool"
        },
        {
          "internalType": "uint256",
          "name": "grantedAt",
          "type": "uint256"
        }
      ],
      "stateMutability": "view",
      "type": "function",
      "constant": true
    }
  ],
  "bytecode": "0x608060405234801561001057600080fd5b506139b6806100206000396000f3fe608060405234801561001057600080fd5b50600436106100f45760003560e01c8063718f38a611610097578063dfe0b5fe11610066578063dfe0b5fe146102d3578063e7755761146102ef578063f3b75def14610324578063fe29962f14610354576100f4565b8063718f38a61461022757806392bb481a14610257578063b96986ca14610273578063dc8b6b45146102a3576100f4565b80633fb9e6b5116100d35780633fb9e6b51461017857806350ef15e6146101a85780635d98dde8146101da57806366d1951a146101f6576100f4565b806251f194146100f95780630495750514610115578063300332d314610148575b600080fd5b610113600480360381019061010e9190612a33565b610384565b005b61012f600480360381019061012a91906129f2565b61070d565b60405161013f94939291906133ec565b60405180910390f35b610162600480360381019061015d919061298d565b610a04565b60405161016f919061326b565b60405180910390f35b610192600480360381019061018d91906129f2565b610e18565b60405161019f9190613249565b60405180910390f35b6101c260048036038101906101bd9190612a33565b610f34565b6040516101d1939291906132a8565b60405180910390f35b6101f460048036038101906101ef9190612a87565b611016565b005b610210600480360381019061020b9190612a33565b6115cd565b60405161021e9291906132e6565b60405180910390f35b610241600480360381019061023c91906129b6565b611777565b60405161024e919061330f565b60405180910390f35b610271600480360381019061026c9190612b06565b611830565b005b61028d60048036038101906102889190612b9d565b611b80565b60405161029a919061322e565b60405180910390f35b6102bd60048036038101906102b891906129b6565b611be4565b6040516102ca919061330f565b60405180910390f35b6102ed60048036038101906102e89190612a33565b611c9d565b005b610309600480360381019061030491906129f2565b6121a2565b60405161031b96959493929190613331565b60405180910390f35b61033e6004803603810190610339919061298d565b6123b9565b60405161034b919061326b565b60405180910390f35b61036e60048036038101906103699190612a87565b6124d1565b60405161037b919061328d565b60405180910390f35b816000816040516103959190613217565b908152602001604051809103902060040160149054906101000a900460ff166103f3576040517f08c379a00000000000000000000000000000000000000000000000000000000081526004016103ea906134ff565b60405180910390fd5b8173ffffffffffffffffffffffffffffffffffffffff1660008460405161041a9190613217565b908152602001604051809103902060040160009054906101000a900473ffffffffffffffffffffffffffffffffffffffff1673ffffffffffffffffffffffffffffffffffffffff1614806104d657506002836040516104799190613217565b908152602001604051809103902060008373ffffffffffffffffffffffffffffffffffffffff1673ffffffffffffffffffffffffffffffffffffffff16815260200190815260200160002060000160009054906101000a900460ff165b610515576040517f08c379a000000000000000000000000000000000000000000000000000000000815260040161050c906135bf565b60405180910390fd5b6000805b600460008573ffffffffffffffffffffffffffffffffffffffff1673ffffffffffffffffffffffffffffffffffffffff16815260200190815260200160002080549050811015610623578480519060200120600460008673ffffffffffffffffffffffffffffffffffffffff1673ffffffffffffffffffffffffffffffffffffffff16815260200190815260200160002082815481106105e2577f4e487b7100000000000000000000000000000000000000000000000000000000600052603260045260246000fd5b906000526020600020016040516105f99190613200565b604051809103902014156106105760019150610623565b808061061b9061386b565b915050610519565b508061070757600460008473ffffffffffffffffffffffffffffffffffffffff1673ffffffffffffffffffffffffffffffffffffffff168152602001908152602001600020849080600181540180825580915050600190039060005260206000200160009091909190915090805190602001906106a1929190612858565b508273ffffffffffffffffffffffffffffffffffffffff16846040516106c79190613217565b60405180910390207f83443ced11922e0dd293ed582f0d62c0ea28d53b84cb918f8098e73509686fb0426040516106fe91906135df565b60405180910390a35b50505050565b606080600080846000816040516107249190613217565b908152602001604051809103902060040160149054906101000a900460ff16610782576040517f08c379a0000000000000000000000000000000000000000000000000000000008152600401610779906134ff565b60405180910390fd5b600080876040516107939190613217565b90815260200160405180910390206040518060c00160405290816000820180546107bc90613839565b80601f01602080910402602001604051908101604052809291908181526020018280546107e890613839565b80156108355780601f1061080a57610100808354040283529160200191610835565b820191906000526020600020905b81548152906001019060200180831161081857829003601f168201915b5050505050815260200160018201805461084e90613839565b80601f016020809104026020016040519081016040528092919081815260200182805461087a90613839565b80156108c75780601f1061089c576101008083540402835291602001916108c7565b820191906000526020600020905b8154815290600101906020018083116108aa57829003601f168201915b505050505081526020016002820180546108e090613839565b80601f016020809104026020016040519081016040528092919081815260200182805461090c90613839565b80156109595780601f1061092e57610100808354040283529160200191610959565b820191906000526020600020905b81548152906001019060200180831161093c57829003601f168201915b50505050508152602001600382015481526020016004820160009054906101000a900473ffffffffffffffffffffffffffffffffffffffff1673ffffffffffffffffffffffffffffffffffffffff1673ffffffffffffffffffffffffffffffffffffffff1681526020016004820160149054906101000a900460ff16151515158152505090508060200151816040015182606001518360800151955095509550955050509193509193565b60606000600160008473ffffffffffffffffffffffffffffffffffffffff1673ffffffffffffffffffffffffffffffffffffffff168152602001908152602001600020805480602002602001604051908101604052809291908181526020016000905b82821015610b13578382906000526020600020018054610a8690613839565b80601f0160208091040260200160405190810160405280929190818152602001828054610ab290613839565b8015610aff5780601f10610ad457610100808354040283529160200191610aff565b820191906000526020600020905b815481529060010190602001808311610ae257829003601f168201915b505050505081526020019060010190610a67565b5050505090506000600460008573ffffffffffffffffffffffffffffffffffffffff1673ffffffffffffffffffffffffffffffffffffffff168152602001908152602001600020805480602002602001604051908101604052809291908181526020016000905b82821015610c26578382906000526020600020018054610b9990613839565b80601f0160208091040260200160405190810160405280929190818152602001828054610bc590613839565b8015610c125780601f10610be757610100808354040283529160200191610c12565b820191906000526020600020905b815481529060010190602001808311610bf557829003601f168201915b505050505081526020019060010190610b7a565b505050509050600081518351610c3c9190613725565b905060008167ffffffffffffffff811115610c80577f4e487b7100000000000000000000000000000000000000000000000000000000600052604160045260246000fd5b604051908082528060200260200182016040528015610cb357816020015b6060815260200190600190039081610c9e5790505b50905060005b8451811015610d5a57848181518110610cfb577f4e487b7100000000000000000000000000000000000000000000000000000000600052603260045260246000fd5b6020026020010151828281518110610d3c577f4e487b7100000000000000000000000000000000000000000000000000000000600052603260045260246000fd5b60200260200101819052508080610d529061386b565b915050610cb9565b5060005b8351811015610e0b57838181518110610da0577f4e487b7100000000000000000000000000000000000000000000000000000000600052603260045260246000fd5b602002602001015182828751610db69190613725565b81518110610ded577f4e487b7100000000000000000000000000000000000000000000000000000000600052603260045260246000fd5b60200260200101819052508080610e039061386b565b915050610d5e565b5080945050505050919050565b606081600081604051610e2b9190613217565b908152602001604051809103902060040160149054906101000a900460ff16610e89576040517f08c379a0000000000000000000000000000000000000000000000000000000008152600401610e80906134ff565b60405180910390fd5b600383604051610e999190613217565b9081526020016040518091039020805480602002602001604051908101604052809291908181526020018280548015610f2757602002820191906000526020600020905b8160009054906101000a900473ffffffffffffffffffffffffffffffffffffffff1673ffffffffffffffffffffffffffffffffffffffff1681526020019060010190808311610edd575b5050505050915050919050565b600282805160208101820180518482526020830160208501208183528095505050505050602052806000526040600020600091509150508060000160009054906101000a900460ff1690806001018054610f8d90613839565b80601f0160208091040260200160405190810160405280929190818152602001828054610fb990613839565b80156110065780601f10610fdb57610100808354040283529160200191611006565b820191906000526020600020905b815481529060010190602001808311610fe957829003601f168201915b5050505050908060020154905083565b826000816040516110279190613217565b908152602001604051809103902060040160149054906101000a900460ff16611085576040517f08c379a000000000000000000000000000000000000000000000000000000000815260040161107c906134ff565b60405180910390fd5b833373ffffffffffffffffffffffffffffffffffffffff166000826040516110ad9190613217565b908152602001604051809103902060040160009054906101000a900473ffffffffffffffffffffffffffffffffffffffff1673ffffffffffffffffffffffffffffffffffffffff1614611135576040517f08c379a000000000000000000000000000000000000000000000000000000000815260040161112c9061359f565b60405180910390fd5b82600481511461117a576040517f08c379a00000000000000000000000000000000000000000000000000000000081526004016111719061353f565b60405180910390fd5b60005b600481101561127c5760308282815181106111c1577f4e487b7100000000000000000000000000000000000000000000000000000000600052603260045260246000fd5b602001015160f81c60f81b60f81c60ff161015801561122a57506039828281518110611216577f4e487b7100000000000000000000000000000000000000000000000000000000600052603260045260246000fd5b602001015160f81c60f81b60f81c60ff1611155b611269576040517f08c379a00000000000000000000000000000000000000000000000000000000081526004016112609061351f565b60405180910390fd5b80806112749061386b565b91505061117d565b50600073ffffffffffffffffffffffffffffffffffffffff168573ffffffffffffffffffffffffffffffffffffffff1614156112ed576040517f08c379a00000000000000000000000000000000000000000000000000000000081526004016112e4906134df565b60405180910390fd5b3373ffffffffffffffffffffffffffffffffffffffff168573ffffffffffffffffffffffffffffffffffffffff16141561135c576040517f08c379a00000000000000000000000000000000000000000000000000000000081526004016113539061347f565b60405180910390fd5b60028660405161136c9190613217565b908152602001604051809103902060008673ffffffffffffffffffffffffffffffffffffffff1673ffffffffffffffffffffffffffffffffffffffff16815260200190815260200160002060000160009054906101000a900460ff1615611408576040517f08c379a00000000000000000000000000000000000000000000000000000000081526004016113ff9061345f565b60405180910390fd5b6040518060600160405280600115158152602001858152602001428152506002876040516114369190613217565b908152602001604051809103902060008773ffffffffffffffffffffffffffffffffffffffff1673ffffffffffffffffffffffffffffffffffffffff16815260200190815260200160002060008201518160000160006101000a81548160ff02191690831515021790555060208201518160010190805190602001906114bd929190612858565b50604082015181600201559050506003866040516114db9190613217565b9081526020016040518091039020859080600181540180825580915050600190039060005260206000200160009091909190916101000a81548173ffffffffffffffffffffffffffffffffffffffff021916908373ffffffffffffffffffffffffffffffffffffffff1602179055508473ffffffffffffffffffffffffffffffffffffffff163373ffffffffffffffffffffffffffffffffffffffff16876040516115869190613217565b60405180910390207f822076acf43d1c461073057e021366b630aa0dd30fb0442d7ad8dbee1f84a8ba426040516115bd91906135df565b60405180910390a4505050505050565b600080836000816040516115e19190613217565b908152602001604051809103902060040160149054906101000a900460ff1661163f576040517f08c379a0000000000000000000000000000000000000000000000000000000008152600401611636906134ff565b60405180910390fd5b60006002866040516116519190613217565b908152602001604051809103902060008673ffffffffffffffffffffffffffffffffffffffff1673ffffffffffffffffffffffffffffffffffffffff1681526020019081526020016000206040518060600160405290816000820160009054906101000a900460ff161515151581526020016001820180546116d290613839565b80601f01602080910402602001604051908101604052809291908181526020018280546116fe90613839565b801561174b5780601f106117205761010080835404028352916020019161174b565b820191906000526020600020905b81548152906001019060200180831161172e57829003601f168201915b505050505081526020016002820154815250509050806000015181604001519350935050509250929050565b6001602052816000526040600020818154811061179357600080fd5b906000526020600020016000915091505080546117af90613839565b80601f01602080910402602001604051908101604052809291908181526020018280546117db90613839565b80156118285780601f106117fd57610100808354040283529160200191611828565b820191906000526020600020905b81548152906001019060200180831161180b57829003601f168201915b505050505081565b6000835111611874576040517f08c379a000000000000000000000000000000000000000000000000000000000815260040161186b9061343f565b60405180910390fd5b60008251116118b8576040517f08c379a00000000000000000000000000000000000000000000000000000000081526004016118af9061349f565b60405180910390fd5b60008151116118fc576040517f08c379a00000000000000000000000000000000000000000000000000000000081526004016118f3906134bf565b60405180910390fd5b60008360405161190c9190613217565b908152602001604051809103902060040160149054906101000a900460ff161561196b576040517f08c379a00000000000000000000000000000000000000000000000000000000081526004016119629061357f565b60405180910390fd5b6040518060c001604052808481526020018381526020018281526020014281526020013373ffffffffffffffffffffffffffffffffffffffff168152602001600115158152506000846040516119c19190613217565b908152602001604051809103902060008201518160000190805190602001906119eb929190612858565b506020820151816001019080519060200190611a08929190612858565b506040820151816002019080519060200190611a25929190612858565b506060820151816003015560808201518160040160006101000a81548173ffffffffffffffffffffffffffffffffffffffff021916908373ffffffffffffffffffffffffffffffffffffffff16021790555060a08201518160040160146101000a81548160ff021916908315150217905550905050600160003373ffffffffffffffffffffffffffffffffffffffff1673ffffffffffffffffffffffffffffffffffffffff16815260200190815260200160002083908060018154018082558091505060019003906000526020600020016000909190919091509080519060200190611b12929190612858565b503373ffffffffffffffffffffffffffffffffffffffff1683604051611b389190613217565b60405180910390207fa1a938fd6bd0dea8b30340853b3112191a4ae8746e874032060743872ae4fcde848442604051611b73939291906133a7565b60405180910390a3505050565b6003828051602081018201805184825260208301602085012081835280955050505050508181548110611bb257600080fd5b906000526020600020016000915091509054906101000a900473ffffffffffffffffffffffffffffffffffffffff1681565b60046020528160005260406000208181548110611c0057600080fd5b90600052602060002001600091509150508054611c1c90613839565b80601f0160208091040260200160405190810160405280929190818152602001828054611c4890613839565b8015611c955780601f10611c6a57610100808354040283529160200191611c95565b820191906000526020600020905b815481529060010190602001808311611c7857829003601f168201915b505050505081565b81600081604051611cae9190613217565b908152602001604051809103902060040160149054906101000a900460ff16611d0c576040517f08c379a0000000000000000000000000000000000000000000000000000000008152600401611d03906134ff565b60405180910390fd5b823373ffffffffffffffffffffffffffffffffffffffff16600082604051611d349190613217565b908152602001604051809103902060040160009054906101000a900473ffffffffffffffffffffffffffffffffffffffff1673ffffffffffffffffffffffffffffffffffffffff1614611dbc576040517f08c379a0000000000000000000000000000000000000000000000000000000008152600401611db39061359f565b60405180910390fd5b600284604051611dcc9190613217565b908152602001604051809103902060008473ffffffffffffffffffffffffffffffffffffffff1673ffffffffffffffffffffffffffffffffffffffff16815260200190815260200160002060000160009054906101000a900460ff16611e67576040517f08c379a0000000000000000000000000000000000000000000000000000000008152600401611e5e9061355f565b60405180910390fd5b6000600285604051611e799190613217565b908152602001604051809103902060008573ffffffffffffffffffffffffffffffffffffffff1673ffffffffffffffffffffffffffffffffffffffff16815260200190815260200160002060000160006101000a81548160ff0219169083151502179055506000600385604051611ef09190613217565b9081526020016040518091039020905060005b818054905081101561211f578473ffffffffffffffffffffffffffffffffffffffff16828281548110611f5f577f4e487b7100000000000000000000000000000000000000000000000000000000600052603260045260246000fd5b9060005260206000200160009054906101000a900473ffffffffffffffffffffffffffffffffffffffff1673ffffffffffffffffffffffffffffffffffffffff16141561210c578160018380549050611fb8919061377b565b81548110611fef577f4e487b7100000000000000000000000000000000000000000000000000000000600052603260045260246000fd5b9060005260206000200160009054906101000a900473ffffffffffffffffffffffffffffffffffffffff16828281548110612053577f4e487b7100000000000000000000000000000000000000000000000000000000600052603260045260246000fd5b9060005260206000200160006101000a81548173ffffffffffffffffffffffffffffffffffffffff021916908373ffffffffffffffffffffffffffffffffffffffff160217905550818054806120d2577f4e487b7100000000000000000000000000000000000000000000000000000000600052603160045260246000fd5b6001900381819060005260206000200160006101000a81549073ffffffffffffffffffffffffffffffffffffffff0219169055905561211f565b80806121179061386b565b915050611f03565b508373ffffffffffffffffffffffffffffffffffffffff163373ffffffffffffffffffffffffffffffffffffffff168660405161215c9190613217565b60405180910390207ffca9e5383feff2471021f2af92b9704199954a3966435d939edeaf684d47591b4260405161219391906135df565b60405180910390a45050505050565b6000818051602081018201805184825260208301602085012081835280955050505050506000915090508060000180546121db90613839565b80601f016020809104026020016040519081016040528092919081815260200182805461220790613839565b80156122545780601f1061222957610100808354040283529160200191612254565b820191906000526020600020905b81548152906001019060200180831161223757829003601f168201915b50505050509080600101805461226990613839565b80601f016020809104026020016040519081016040528092919081815260200182805461229590613839565b80156122e25780601f106122b7576101008083540402835291602001916122e2565b820191906000526020600020905b8154815290600101906020018083116122c557829003601f168201915b5050505050908060020180546122f790613839565b80601f016020809104026020016040519081016040528092919081815260200182805461232390613839565b80156123705780601f1061234557610100808354040283529160200191612370565b820191906000526020600020905b81548152906001019060200180831161235357829003601f168201915b5050505050908060030154908060040160009054906101000a900473ffffffffffffffffffffffffffffffffffffffff16908060040160149054906101000a900460ff16905086565b6060600460008373ffffffffffffffffffffffffffffffffffffffff1673ffffffffffffffffffffffffffffffffffffffff168152602001908152602001600020805480602002602001604051908101604052809291908181526020016000905b828210156124c657838290600052602060002001805461243990613839565b80601f016020809104026020016040519081016040528092919081815260200182805461246590613839565b80156124b25780601f10612487576101008083540402835291602001916124b2565b820191906000526020600020905b81548152906001019060200180831161249557829003601f168201915b50505050508152602001906001019061241a565b505050509050919050565b6000836000816040516124e49190613217565b908152602001604051809103902060040160149054906101000a900460ff16612542576040517f08c379a0000000000000000000000000000000000000000000000000000000008152600401612539906134ff565b60405180910390fd5b826004815114612587576040517f08c379a000000000000000000000000000000000000000000000000000000000815260040161257e9061353f565b60405180910390fd5b60005b60048110156126895760308282815181106125ce577f4e487b7100000000000000000000000000000000000000000000000000000000600052603260045260246000fd5b602001015160f81c60f81b60f81c60ff161015801561263757506039828281518110612623577f4e487b7100000000000000000000000000000000000000000000000000000000600052603260045260246000fd5b602001015160f81c60f81b60f81c60ff1611155b612676576040517f08c379a000000000000000000000000000000000000000000000000000000000815260040161266d9061351f565b60405180910390fd5b80806126819061386b565b91505061258a565b508473ffffffffffffffffffffffffffffffffffffffff166000876040516126b19190613217565b908152602001604051809103902060040160009054906101000a900473ffffffffffffffffffffffffffffffffffffffff1673ffffffffffffffffffffffffffffffffffffffff161415612708576001925061284f565b600060028760405161271a9190613217565b908152602001604051809103902060008773ffffffffffffffffffffffffffffffffffffffff1673ffffffffffffffffffffffffffffffffffffffff1681526020019081526020016000206040518060600160405290816000820160009054906101000a900460ff1615151515815260200160018201805461279b90613839565b80601f01602080910402602001604051908101604052809291908181526020018280546127c790613839565b80156128145780601f106127e957610100808354040283529160200191612814565b820191906000526020600020905b8154815290600101906020018083116127f757829003601f168201915b5050505050815260200160028201548152505090508060000151801561284b57508480519060200120816020015180519060200120145b9350505b50509392505050565b82805461286490613839565b90600052602060002090601f01602090048101928261288657600085556128cd565b82601f1061289f57805160ff19168380011785556128cd565b828001600101855582156128cd579182015b828111156128cc5782518255916020019190600101906128b1565b5b5090506128da91906128de565b5090565b5b808211156128f75760008160009055506001016128df565b5090565b600061290e6129098461362b565b6135fa565b90508281526020810184848401111561292657600080fd5b6129318482856137f7565b509392505050565b60008135905061294881613952565b92915050565b600082601f83011261295f57600080fd5b813561296f8482602086016128fb565b91505092915050565b60008135905061298781613969565b92915050565b60006020828403121561299f57600080fd5b60006129ad84828501612939565b91505092915050565b600080604083850312156129c957600080fd5b60006129d785828601612939565b92505060206129e885828601612978565b9150509250929050565b600060208284031215612a0457600080fd5b600082013567ffffffffffffffff811115612a1e57600080fd5b612a2a8482850161294e565b91505092915050565b60008060408385031215612a4657600080fd5b600083013567ffffffffffffffff811115612a6057600080fd5b612a6c8582860161294e565b9250506020612a7d85828601612939565b9150509250929050565b600080600060608486031215612a9c57600080fd5b600084013567ffffffffffffffff811115612ab657600080fd5b612ac28682870161294e565b9350506020612ad386828701612939565b925050604084013567ffffffffffffffff811115612af057600080fd5b612afc8682870161294e565b9150509250925092565b600080600060608486031215612b1b57600080fd5b600084013567ffffffffffffffff811115612b3557600080fd5b612b418682870161294e565b935050602084013567ffffffffffffffff811115612b5e57600080fd5b612b6a8682870161294e565b925050604084013567ffffffffffffffff811115612b8757600080fd5b612b938682870161294e565b9150509250925092565b60008060408385031215612bb057600080fd5b600083013567ffffffffffffffff811115612bca57600080fd5b612bd68582860161294e565b9250506020612be785828601612978565b9150509250929050565b6000612bfd8383612c1d565b60208301905092915050565b6000612c158383612d9c565b905092915050565b612c26816137af565b82525050565b612c35816137af565b82525050565b6000612c4682613690565b612c5081856136cb565b9350612c5b8361365b565b8060005b83811015612c8c578151612c738882612bf1565b9750612c7e836136b1565b925050600181019050612c5f565b5085935050505092915050565b6000612ca48261369b565b612cae81856136dc565b935083602082028501612cc08561366b565b8060005b85811015612cfc5784840389528151612cdd8582612c09565b9450612ce8836136be565b925060208a01995050600181019050612cc4565b50829750879550505050505092915050565b612d17816137c1565b82525050565b60008154612d2a81613839565b612d3481866136ed565b94506001821660008114612d4f5760018114612d6057612d93565b60ff19831686528186019350612d93565b612d698561367b565b60005b83811015612d8b57815481890152600182019150602081019050612d6c565b838801955050505b50505092915050565b6000612da7826136a6565b612db181856136f8565b9350612dc1818560208601613806565b612dca81613941565b840191505092915050565b6000612de0826136a6565b612dea8185613709565b9350612dfa818560208601613806565b612e0381613941565b840191505092915050565b6000612e19826136a6565b612e23818561371a565b9350612e33818560208601613806565b80840191505092915050565b6000612e4c601183613709565b91507f496e76616c6964204950465320686173680000000000000000000000000000006000830152602082019050919050565b6000612e8c601683613709565b91507f41636365737320616c7265616479206772616e746564000000000000000000006000830152602082019050919050565b6000612ecc601f83613709565b91507f43616e6e6f74206772616e742061636365737320746f20796f757273656c66006000830152602082019050919050565b6000612f0c601883613709565b91507f46696c656e616d652063616e6e6f7420626520656d70747900000000000000006000830152602082019050919050565b6000612f4c601b83613709565b91507f4465736372697074696f6e2063616e6e6f7420626520656d70747900000000006000830152602082019050919050565b6000612f8c601883613709565b91507f496e76616c6964207265636569766572206164647265737300000000000000006000830152602082019050919050565b6000612fcc601383613709565b91507f46696c6520646f6573206e6f74206578697374000000000000000000000000006000830152602082019050919050565b600061300c602483613709565b91507f4b6579206d75737420636f6e7461696e206f6e6c79206e756d6572696320646960008301527f67697473000000000000000000000000000000000000000000000000000000006020830152604082019050919050565b6000613072601c83613709565b91507f4b6579206d7573742062652065786163746c79203420646967697473000000006000830152602082019050919050565b60006130b2601383613709565b91507f4e6f2061636365737320746f207265766f6b65000000000000000000000000006000830152602082019050919050565b60006130f2601383613709565b91507f46696c6520616c726561647920657869737473000000000000000000000000006000830152602082019050919050565b6000613132602283613709565b91507f4f6e6c79206f776e65722063616e20706572666f726d2074686973206163746960008301527f6f6e0000000000000000000000000000000000000000000000000000000000006020830152604082019050919050565b6000613198602683613709565b91507f5573657220646f6573206e6f7420686176652061636365737320746f2074686960008301527f732066696c6500000000000000000000000000000000000000000000000000006020830152604082019050919050565b6131fa816137ed565b82525050565b600061320c8284612d1d565b915081905092915050565b60006132238284612e0e565b915081905092915050565b60006020820190506132436000830184612c2c565b92915050565b600060208201905081810360008301526132638184612c3b565b905092915050565b600060208201905081810360008301526132858184612c99565b905092915050565b60006020820190506132a26000830184612d0e565b92915050565b60006060820190506132bd6000830186612d0e565b81810360208301526132cf8185612dd5565b90506132de60408301846131f1565b949350505050565b60006040820190506132fb6000830185612d0e565b61330860208301846131f1565b9392505050565b600060208201905081810360008301526133298184612dd5565b905092915050565b600060c082019050818103600083015261334b8189612dd5565b9050818103602083015261335f8188612dd5565b905081810360408301526133738187612dd5565b905061338260608301866131f1565b61338f6080830185612c2c565b61339c60a0830184612d0e565b979650505050505050565b600060608201905081810360008301526133c18186612dd5565b905081810360208301526133d58185612dd5565b90506133e460408301846131f1565b949350505050565b600060808201905081810360008301526134068187612dd5565b9050818103602083015261341a8186612dd5565b905061342960408301856131f1565b6134366060830184612c2c565b95945050505050565b6000602082019050818103600083015261345881612e3f565b9050919050565b6000602082019050818103600083015261347881612e7f565b9050919050565b6000602082019050818103600083015261349881612ebf565b9050919050565b600060208201905081810360008301526134b881612eff565b9050919050565b600060208201905081810360008301526134d881612f3f565b9050919050565b600060208201905081810360008301526134f881612f7f565b9050919050565b6000602082019050818103600083015261351881612fbf565b9050919050565b6000602082019050818103600083015261353881612fff565b9050919050565b6000602082019050818103600083015261355881613065565b9050919050565b60006020820190508181036000830152613578816130a5565b9050919050565b60006020820190508181036000830152613598816130e5565b9050919050565b600060208201905081810360008301526135b881613125565b9050919050565b600060208201905081810360008301526135d88161318b565b9050919050565b60006020820190506135f460008301846131f1565b92915050565b6000604051905081810181811067ffffffffffffffff8211171561362157613620613912565b5b8060405250919050565b600067ffffffffffffffff82111561364657613645613912565b5b601f19601f8301169050602081019050919050565b6000819050602082019050919050565b6000819050602082019050919050565b60008190508160005260206000209050919050565b600081519050919050565b600081519050919050565b600081519050919050565b6000602082019050919050565b6000602082019050919050565b600082825260208201905092915050565b600082825260208201905092915050565b600081905092915050565b600082825260208201905092915050565b600082825260208201905092915050565b600081905092915050565b6000613730826137ed565b915061373b836137ed565b9250827fffffffffffffffffffffffffffffffffffffffffffffffffffffffffffffffff038211156137705761376f6138b4565b5b828201905092915050565b6000613786826137ed565b9150613791836137ed565b9250828210156137a4576137a36138b4565b5b828203905092915050565b60006137ba826137cd565b9050919050565b60008115159050919050565b600073ffffffffffffffffffffffffffffffffffffffff82169050919050565b6000819050919050565b82818337600083830152505050565b60005b83811015613824578082015181840152602081019050613809565b83811115613833576000848401525b50505050565b6000600282049050600182168061385157607f821691505b60208210811415613865576138646138e3565b5b50919050565b6000613876826137ed565b91507fffffffffffffffffffffffffffffffffffffffffffffffffffffffffffffffff8214156138a9576138a86138b4565b5b600182019050919050565b7f4e487b7100000000000000000000000000000000000000000000000000000000600052601160045260246000fd5b7f4e487b7100000000000000000000000000000000000000000000000000000000600052602260045260246000fd5b7f4e487b7100000000000000000000000000000000000000000000000000000000600052604160045260246000fd5b6000601f19601f8301169050919050565b61395b816137af565b811461396657600080fd5b50565b613972816137ed565b811461397d57600080fd5b5056fea2646970667358221220d8d8d011cbec52e1f8899504e180eaa6ed79ed4a519cc71a5f8a57fac228f07064736f6c63430008000033",
  "immutableReferences": {},
  "source": "// SPDX-License-Identifier: MIT\r\npragma solidity ^0.8.0;\r\n\r\ncontract FileStorage {\r\n    struct File {\r\n        string ipfsHash;\r\n        string fileName;\r\n        string description;\r\n        uint256 timestamp;\r\n        address owner;\r\n        bool exists;  // To check if file exists\r\n    }\r\n\r\n    struct AccessControl {\r\n        bool hasAccess;\r\n        string accessKey;  // 4-digit key stored as a string\r\n        uint256 grantedAt;  // Timestamp when access was granted\r\n    }\r\n\r\n    // Mappings\r\n    mapping(string => File) public files;\r\n    mapping(address => string[]) public userFiles;\r\n    mapping(string => mapping(address => AccessControl)) public accessList;\r\n    mapping(string => address[]) public fileAccessList;\r\n    mapping(address => string[]) public accessedFiles;  // New mapping to track accessed files\r\n\r\n    // Events\r\n    event FileUploaded(\r\n        string indexed ipfsHash,\r\n        string fileName,\r\n        string description,\r\n        uint256 timestamp,\r\n        address indexed owner\r\n    );\r\n    \r\n    event AccessGranted(\r\n        string indexed ipfsHash,\r\n        address indexed sender,\r\n        address indexed receiver,\r\n        uint256 timestamp\r\n    );\r\n\r\n    event AccessRevoked(\r\n        string indexed ipfsHash,\r\n        address indexed sender,\r\n        address indexed receiver,\r\n        uint256 timestamp\r\n    );\r\n\r\n    event FileAccessed(\r\n        string indexed ipfsHash,\r\n        address indexed user,\r\n        uint256 timestamp\r\n    );\r\n\r\n    // Validate 4-digit key format\r\n    modifier validKey(string memory key) {\r\n        require(bytes(key).length == 4, \"Key must be exactly 4 digits\");\r\n        for(uint i = 0; i < 4; i++) {\r\n            require(\r\n                uint8(bytes(key)[i]) >= 48 && uint8(bytes(key)[i]) <= 57,\r\n                \"Key must contain only numeric digits\"\r\n            );\r\n        }\r\n        _;\r\n    }\r\n\r\n    modifier fileExists(string memory ipfsHash) {\r\n        require(files[ipfsHash].exists, \"File does not exist\");\r\n        _;\r\n    }\r\n\r\n    modifier onlyOwner(string memory ipfsHash) {\r\n        require(files[ipfsHash].owner == msg.sender, \"Only owner can perform this action\");\r\n        _;\r\n    }\r\n\r\n    // Upload a file with filename, description, and timestamp\r\n    function uploadFile(\r\n        string memory ipfsHash,\r\n        string memory fileName,\r\n        string memory description\r\n    ) public {\r\n        require(bytes(ipfsHash).length > 0, \"Invalid IPFS hash\");\r\n        require(bytes(fileName).length > 0, \"Filename cannot be empty\");\r\n        require(bytes(description).length > 0, \"Description cannot be empty\");\r\n        require(!files[ipfsHash].exists, \"File already exists\");\r\n\r\n        files[ipfsHash] = File({\r\n            ipfsHash: ipfsHash,\r\n            fileName: fileName,\r\n            description: description,\r\n            timestamp: block.timestamp,\r\n            owner: msg.sender,\r\n            exists: true\r\n        });\r\n\r\n        userFiles[msg.sender].push(ipfsHash);\r\n\r\n        emit FileUploaded(\r\n            ipfsHash,\r\n            fileName,\r\n            description,\r\n            block.timestamp,\r\n            msg.sender\r\n        );\r\n    }\r\n\r\n    // Grant access to another user with a 4-digit key\r\n    function grantAccess(\r\n        string memory ipfsHash,\r\n        address receiver,\r\n        string memory accessKey\r\n    ) public \r\n        fileExists(ipfsHash)\r\n        onlyOwner(ipfsHash)\r\n        validKey(accessKey)\r\n    {\r\n        require(receiver != address(0), \"Invalid receiver address\");\r\n        require(receiver != msg.sender, \"Cannot grant access to yourself\");\r\n        require(!accessList[ipfsHash][receiver].hasAccess, \"Access already granted\");\r\n\r\n        accessList[ipfsHash][receiver] = AccessControl({\r\n            hasAccess: true,\r\n            accessKey: accessKey,\r\n            grantedAt: block.timestamp\r\n        });\r\n\r\n        fileAccessList[ipfsHash].push(receiver);\r\n\r\n        emit AccessGranted(\r\n            ipfsHash,\r\n            msg.sender,\r\n            receiver,\r\n            block.timestamp\r\n        );\r\n    }\r\n\r\n    // Revoke access from a user\r\n    function revokeAccess(\r\n        string memory ipfsHash,\r\n        address user\r\n    ) public \r\n        fileExists(ipfsHash)\r\n        onlyOwner(ipfsHash)\r\n    {\r\n        require(accessList[ipfsHash][user].hasAccess, \"No access to revoke\");\r\n\r\n        accessList[ipfsHash][user].hasAccess = false;\r\n        \r\n        // Remove from fileAccessList\r\n        address[] storage accessArray = fileAccessList[ipfsHash];\r\n        for (uint i = 0; i < accessArray.length; i++) {\r\n            if (accessArray[i] == user) {\r\n                accessArray[i] = accessArray[accessArray.length - 1];\r\n                accessArray.pop();\r\n                break;\r\n            }\r\n        }\r\n\r\n        emit AccessRevoked(\r\n            ipfsHash,\r\n            msg.sender,\r\n            user,\r\n            block.timestamp\r\n        );\r\n    }\r\n\r\n    // Verify access and record accessed file\r\n    function verifyAccess(\r\n        string memory ipfsHash,\r\n        address user,\r\n        string memory accessKey\r\n    ) public view \r\n        fileExists(ipfsHash)\r\n        validKey(accessKey)\r\n        returns (bool)\r\n    {\r\n        if (files[ipfsHash].owner == user) {\r\n            return true;  // Owner always has access\r\n        }\r\n\r\n        AccessControl memory access = accessList[ipfsHash][user];\r\n        return access.hasAccess && \r\n               keccak256(bytes(access.accessKey)) == keccak256(bytes(accessKey));\r\n    }\r\n\r\n    // Record file access after verification\r\n    function recordFileAccess(\r\n        string memory ipfsHash,\r\n        address user\r\n    ) public\r\n        fileExists(ipfsHash)\r\n    {\r\n        require(\r\n            files[ipfsHash].owner == user || accessList[ipfsHash][user].hasAccess,\r\n            \"User does not have access to this file\"\r\n        );\r\n\r\n        // Check if file is already in accessed files\r\n        bool isFileInAccessList = false;\r\n        for (uint i = 0; i < accessedFiles[user].length; i++) {\r\n            if (keccak256(bytes(accessedFiles[user][i])) == keccak256(bytes(ipfsHash))) {\r\n                isFileInAccessList = true;\r\n                break;\r\n            }\r\n        }\r\n\r\n        // Add to accessed files if not already present\r\n        if (!isFileInAccessList) {\r\n            accessedFiles[user].push(ipfsHash);\r\n            emit FileAccessed(ipfsHash, user, block.timestamp);\r\n        }\r\n    }\r\n\r\n    // Get all accessed files for a user\r\n    function getAccessedFiles(address user) public view returns (string[] memory) {\r\n        return accessedFiles[user];\r\n    }\r\n\r\n    // Modified getFilesByUser to include both owned and accessed files\r\n    function getFilesByUser(address user) public view returns (string[] memory) {\r\n        string[] memory owned = userFiles[user];\r\n        string[] memory accessed = accessedFiles[user];\r\n        \r\n        // Calculate total length\r\n        uint totalLength = owned.length + accessed.length;\r\n        \r\n        // Create combined array\r\n        string[] memory combined = new string[](totalLength);\r\n        \r\n        // Copy owned files\r\n        for(uint i = 0; i < owned.length; i++) {\r\n            combined[i] = owned[i];\r\n        }\r\n        \r\n        // Copy accessed files\r\n        for(uint i = 0; i < accessed.length; i++) {\r\n            combined[owned.length + i] = accessed[i];\r\n        }\r\n        \r\n        return combined;\r\n    }\r\n\r\n    // Get file details by IPFS hash\r\n    function getFileDetails(string memory ipfsHash) public view \r\n        fileExists(ipfsHash)\r\n        returns (\r\n            string memory fileName,\r\n            string memory description,\r\n            uint256 timestamp,\r\n            address owner\r\n        )\r\n    {\r\n        File memory file = files[ipfsHash];\r\n        return (\r\n            file.fileName,\r\n            file.description,\r\n            file.timestamp,\r\n            file.owner\r\n        );\r\n    }\r\n\r\n    // Get the list of addresses that have been granted access to a file\r\n    function getFileAccessList(string memory ipfsHash) public view \r\n        fileExists(ipfsHash)\r\n        returns (address[] memory)\r\n    {\r\n        return fileAccessList[ipfsHash];\r\n    }\r\n\r\n    function getAccessDetails(string memory ipfsHash, address user) public view\r\n        fileExists(ipfsHash)\r\n        returns (\r\n            bool hasAccess,\r\n            uint256 grantedAt\r\n        )\r\n    {\r\n        AccessControl memory access = accessList[ipfsHash][user];\r\n        return (\r\n            access.hasAccess,\r\n            access.grantedAt\r\n        );\r\n    }\r\n}",
  "sourcePath": "C:\\Users\\prith\\Desktop\\QWEN@S\\Decentralized_FileStorage\\contracts\\FileStorage.sol",
  "compiler": {
    "name": "solc",
    "version": "0.8.0+commit.c7dfd78e.Emscripten.clang"
  },
  "schemaVersion": "3.4.16",
  "updatedAt": "2025-03-06T04:41:34.148Z",
  "networkType": "ethereum",
  "devdoc": {
    "kind": "dev",
    "methods": {},
    "version": 1
  },
  "userdoc": {
    "kind": "user",
    "methods": {},
    "version": 1
  }
}